{
  "contractName": "TicTacToe",
  "abi": [
    {
      "inputs": [],
      "stateMutability": "nonpayable",
      "type": "constructor"
    },
    {
      "anonymous": false,
      "inputs": [
        {
          "indexed": false,
          "internalType": "address",
          "name": "winner",
          "type": "address"
        }
      ],
      "name": "GameOver",
      "type": "event"
    },
    {
      "anonymous": false,
      "inputs": [
        {
          "indexed": true,
          "internalType": "address",
          "name": "player",
          "type": "address"
        },
        {
          "indexed": false,
          "internalType": "uint8",
          "name": "row",
          "type": "uint8"
        },
        {
          "indexed": false,
          "internalType": "uint8",
          "name": "col",
          "type": "uint8"
        }
      ],
      "name": "Move",
      "type": "event"
    },
    {
      "inputs": [
        {
          "internalType": "uint256",
          "name": "",
          "type": "uint256"
        },
        {
          "internalType": "uint256",
          "name": "",
          "type": "uint256"
        }
      ],
      "name": "board",
      "outputs": [
        {
          "internalType": "uint8",
          "name": "",
          "type": "uint8"
        }
      ],
      "stateMutability": "view",
      "type": "function",
      "constant": true
    },
    {
      "inputs": [],
      "name": "currentPlayer",
      "outputs": [
        {
          "internalType": "address",
          "name": "",
          "type": "address"
        }
      ],
      "stateMutability": "view",
      "type": "function",
      "constant": true
    },
    {
      "inputs": [],
      "name": "moves",
      "outputs": [
        {
          "internalType": "uint8",
          "name": "",
          "type": "uint8"
        }
      ],
      "stateMutability": "view",
      "type": "function",
      "constant": true
    },
    {
      "inputs": [],
      "name": "player1",
      "outputs": [
        {
          "internalType": "address",
          "name": "",
          "type": "address"
        }
      ],
      "stateMutability": "view",
      "type": "function",
      "constant": true
    },
    {
      "inputs": [],
      "name": "player2",
      "outputs": [
        {
          "internalType": "address",
          "name": "",
          "type": "address"
        }
      ],
      "stateMutability": "view",
      "type": "function",
      "constant": true
    },
    {
      "inputs": [
        {
          "internalType": "uint8",
          "name": "row",
          "type": "uint8"
        },
        {
          "internalType": "uint8",
          "name": "col",
          "type": "uint8"
        }
      ],
      "name": "makeMove",
      "outputs": [],
      "stateMutability": "nonpayable",
      "type": "function"
    }
  ],
  "bytecode": "0x608060405234801561001057600080fd5b50336000806101000a81548173ffffffffffffffffffffffffffffffffffffffff021916908373ffffffffffffffffffffffffffffffffffffffff16021790555033600260006101000a81548173ffffffffffffffffffffffffffffffffffffffff021916908373ffffffffffffffffffffffffffffffffffffffff1602179055506113f2806100a16000396000f3fe608060405234801561001057600080fd5b50600436106100615760003560e01c8062be8275146100665780634404a4381461008457806359a5f12d146100a25780635e24b0f1146100c05780638086a92a146100dc578063d30895e41461010c575b600080fd5b61006e61012a565b60405161007b9190611237565b60405180910390f35b61008c61013d565b60405161009991906111bc565b60405180910390f35b6100aa610163565b6040516100b791906111bc565b60405180910390f35b6100da60048036038101906100d591906110a2565b610189565b005b6100f660048036038101906100f19190611066565b610686565b6040516101039190611237565b60405180910390f35b6101146106c2565b60405161012191906111bc565b60405180910390f35b600260149054906101000a900460ff1681565b600260009054906101000a900473ffffffffffffffffffffffffffffffffffffffff1681565b600160009054906101000a900473ffffffffffffffffffffffffffffffffffffffff1681565b60038260ff1610801561019f575060038160ff16105b6101de576040517f08c379a00000000000000000000000000000000000000000000000000000000081526004016101d590611217565b60405180910390fd5b600060038360ff166003811061021d577f4e487b7100000000000000000000000000000000000000000000000000000000600052603260045260246000fd5b018260ff1660038110610259577f4e487b7100000000000000000000000000000000000000000000000000000000600052603260045260246000fd5b602091828204019190069054906101000a900460ff1660ff16146102b2576040517f08c379a00000000000000000000000000000000000000000000000000000000081526004016102a9906111d7565b60405180910390fd5b600260009054906101000a900473ffffffffffffffffffffffffffffffffffffffff1673ffffffffffffffffffffffffffffffffffffffff163373ffffffffffffffffffffffffffffffffffffffff1614610342576040517f08c379a0000000000000000000000000000000000000000000000000000000008152600401610339906111f7565b60405180910390fd5b600060028060149054906101000a900460ff1661035f91906112ff565b60ff161461036e576002610371565b60015b60038360ff16600381106103ae577f4e487b7100000000000000000000000000000000000000000000000000000000600052603260045260246000fd5b018260ff16600381106103ea577f4e487b7100000000000000000000000000000000000000000000000000000000600052603260045260246000fd5b602091828204019190066101000a81548160ff021916908360ff1602179055506002601481819054906101000a900460ff1680929190610429906112d5565b91906101000a81548160ff021916908360ff160217905550503373ffffffffffffffffffffffffffffffffffffffff167f0a3a2dfe2816b2bd22f19c28b0cb22a0493ccc7b3685b69aee802451d3e7a4bc838360405161048a929190611252565b60405180910390a261049c82826106e6565b1561051f576000600260006101000a81548173ffffffffffffffffffffffffffffffffffffffff021916908373ffffffffffffffffffffffffffffffffffffffff1602179055507ff556ad7790e70877edcf3b3bb441255def8a405faa0dfdb005a02fa8e557bca93360405161051291906111bc565b60405180910390a1610682565b6009600260149054906101000a900460ff1660ff161415610581576000600260006101000a81548173ffffffffffffffffffffffffffffffffffffffff021916908373ffffffffffffffffffffffffffffffffffffffff160217905550610681565b60008054906101000a900473ffffffffffffffffffffffffffffffffffffffff1673ffffffffffffffffffffffffffffffffffffffff16600260009054906101000a900473ffffffffffffffffffffffffffffffffffffffff1673ffffffffffffffffffffffffffffffffffffffff161461061c5760008054906101000a900473ffffffffffffffffffffffffffffffffffffffff16610640565b600160009054906101000a900473ffffffffffffffffffffffffffffffffffffffff165b600260006101000a81548173ffffffffffffffffffffffffffffffffffffffff021916908373ffffffffffffffffffffffffffffffffffffffff1602179055505b5b5050565b6003826003811061069657600080fd5b0181600381106106a557600080fd5b60209182820401919006915091509054906101000a900460ff1681565b60008054906101000a900473ffffffffffffffffffffffffffffffffffffffff1681565b600060038360ff1660038110610725577f4e487b7100000000000000000000000000000000000000000000000000000000600052603260045260246000fd5b0160016003811061075f577f4e487b7100000000000000000000000000000000000000000000000000000000600052603260045260246000fd5b602091828204019190069054906101000a900460ff1660ff1660038460ff16600381106107b5577f4e487b7100000000000000000000000000000000000000000000000000000000600052603260045260246000fd5b016000600381106107ef577f4e487b7100000000000000000000000000000000000000000000000000000000600052603260045260246000fd5b602091828204019190069054906101000a900460ff1660ff16148015610932575060038360ff166003811061084d577f4e487b7100000000000000000000000000000000000000000000000000000000600052603260045260246000fd5b01600260038110610887577f4e487b7100000000000000000000000000000000000000000000000000000000600052603260045260246000fd5b602091828204019190069054906101000a900460ff1660ff1660038460ff16600381106108dd577f4e487b7100000000000000000000000000000000000000000000000000000000600052603260045260246000fd5b01600060038110610917577f4e487b7100000000000000000000000000000000000000000000000000000000600052603260045260246000fd5b602091828204019190069054906101000a900460ff1660ff16145b156109405760019050611036565b600360016003811061097b577f4e487b7100000000000000000000000000000000000000000000000000000000600052603260045260246000fd5b018260ff16600381106109b7577f4e487b7100000000000000000000000000000000000000000000000000000000600052603260045260246000fd5b602091828204019190069054906101000a900460ff1660ff166003600060038110610a0b577f4e487b7100000000000000000000000000000000000000000000000000000000600052603260045260246000fd5b018360ff1660038110610a47577f4e487b7100000000000000000000000000000000000000000000000000000000600052603260045260246000fd5b602091828204019190069054906101000a900460ff1660ff16148015610b8a57506003600260038110610aa3577f4e487b7100000000000000000000000000000000000000000000000000000000600052603260045260246000fd5b018260ff1660038110610adf577f4e487b7100000000000000000000000000000000000000000000000000000000600052603260045260246000fd5b602091828204019190069054906101000a900460ff1660ff166003600060038110610b33577f4e487b7100000000000000000000000000000000000000000000000000000000600052603260045260246000fd5b018360ff1660038110610b6f577f4e487b7100000000000000000000000000000000000000000000000000000000600052603260045260246000fd5b602091828204019190069054906101000a900460ff1660ff16145b15610b985760019050611036565b6003600160038110610bd3577f4e487b7100000000000000000000000000000000000000000000000000000000600052603260045260246000fd5b01600160038110610c0d577f4e487b7100000000000000000000000000000000000000000000000000000000600052603260045260246000fd5b602091828204019190069054906101000a900460ff1660ff166003600060038110610c61577f4e487b7100000000000000000000000000000000000000000000000000000000600052603260045260246000fd5b01600060038110610c9b577f4e487b7100000000000000000000000000000000000000000000000000000000600052603260045260246000fd5b602091828204019190069054906101000a900460ff1660ff16148015610dda57506003600260038110610cf7577f4e487b7100000000000000000000000000000000000000000000000000000000600052603260045260246000fd5b01600260038110610d31577f4e487b7100000000000000000000000000000000000000000000000000000000600052603260045260246000fd5b602091828204019190069054906101000a900460ff1660ff166003600060038110610d85577f4e487b7100000000000000000000000000000000000000000000000000000000600052603260045260246000fd5b01600060038110610dbf577f4e487b7100000000000000000000000000000000000000000000000000000000600052603260045260246000fd5b602091828204019190069054906101000a900460ff1660ff16145b8061102357506003600160038110610e1b577f4e487b7100000000000000000000000000000000000000000000000000000000600052603260045260246000fd5b01600160038110610e55577f4e487b7100000000000000000000000000000000000000000000000000000000600052603260045260246000fd5b602091828204019190069054906101000a900460ff1660ff166003600060038110610ea9577f4e487b7100000000000000000000000000000000000000000000000000000000600052603260045260246000fd5b01600260038110610ee3577f4e487b7100000000000000000000000000000000000000000000000000000000600052603260045260246000fd5b602091828204019190069054906101000a900460ff1660ff1614801561102257506003600260038110610f3f577f4e487b7100000000000000000000000000000000000000000000000000000000600052603260045260246000fd5b01600060038110610f79577f4e487b7100000000000000000000000000000000000000000000000000000000600052603260045260246000fd5b602091828204019190069054906101000a900460ff1660ff166003600060038110610fcd577f4e487b7100000000000000000000000000000000000000000000000000000000600052603260045260246000fd5b01600260038110611007577f4e487b7100000000000000000000000000000000000000000000000000000000600052603260045260246000fd5b602091828204019190069054906101000a900460ff1660ff16145b5b156110315760019050611036565b600090505b92915050565b60008135905061104b8161138e565b92915050565b600081359050611060816113a5565b92915050565b6000806040838503121561107957600080fd5b60006110878582860161103c565b92505060206110988582860161103c565b9150509250929050565b600080604083850312156110b557600080fd5b60006110c385828601611051565b92505060206110d485828601611051565b9150509250929050565b6110e78161128c565b82525050565b60006110fa60168361127b565b91507f506f736974696f6e20616c72656164792074616b656e000000000000000000006000830152602082019050919050565b600061113a600d8361127b565b91507f4e6f7420796f7572207475726e000000000000000000000000000000000000006000830152602082019050919050565b600061117a60168361127b565b91507f496e76616c696420626f61726420706f736974696f6e000000000000000000006000830152602082019050919050565b6111b6816112c8565b82525050565b60006020820190506111d160008301846110de565b92915050565b600060208201905081810360008301526111f0816110ed565b9050919050565b600060208201905081810360008301526112108161112d565b9050919050565b600060208201905081810360008301526112308161116d565b9050919050565b600060208201905061124c60008301846111ad565b92915050565b600060408201905061126760008301856111ad565b61127460208301846111ad565b9392505050565b600082825260208201905092915050565b60006112978261129e565b9050919050565b600073ffffffffffffffffffffffffffffffffffffffff82169050919050565b6000819050919050565b600060ff82169050919050565b60006112e0826112c8565b915060ff8214156112f4576112f3611330565b5b600182019050919050565b600061130a826112c8565b9150611315836112c8565b9250826113255761132461135f565b5b828206905092915050565b7f4e487b7100000000000000000000000000000000000000000000000000000000600052601160045260246000fd5b7f4e487b7100000000000000000000000000000000000000000000000000000000600052601260045260246000fd5b611397816112be565b81146113a257600080fd5b50565b6113ae816112c8565b81146113b957600080fd5b5056fea2646970667358221220981849b9d514208326986e6208320222e8264f8679ee8a60009f273c7941d93964736f6c63430008000033",
  "immutableReferences": {},
  "source": "// SPDX-License-Identifier: MIT\r\npragma solidity ^0.8.0;\r\n\r\ncontract TicTacToe {\r\n  address public player1;\r\n  address public player2;\r\n  address public currentPlayer;\r\n  uint8 public moves;\r\n\r\n  // Game board\r\n  uint8[3][3] public board;\r\n\r\n  // Event to signal a move\r\n  event Move(address indexed player, uint8 row, uint8 col);\r\n\r\n  // Optional event to signal game over\r\n  event GameOver(address winner);\r\n\r\n  // Constructor function\r\n  constructor() {\r\n    player1 = msg.sender;\r\n    currentPlayer = msg.sender;\r\n  }\r\n\r\n  // Function to make a move\r\n  function makeMove(uint8 row, uint8 col) external {\r\n    require(row < 3 && col < 3, \"Invalid board position\");\r\n    require(board[row][col] == 0, \"Position already taken\");\r\n    require(msg.sender == currentPlayer, \"Not your turn\");\r\n\r\n    // Update the board with the player's move\r\n    board[row][col] = moves % 2 == 0 ? 1 : 2;\r\n    moves++;\r\n\r\n    // Emit the move event\r\n    emit Move(msg.sender, row, col);\r\n\r\n    // Check for a winner or draw\r\n    if (checkWinner(row, col)) {\r\n      // Game over - declare winner\r\n      currentPlayer = address(0); // Set current player to empty address\r\n      emit GameOver(msg.sender); // Emit game over event with winner address\r\n    } else if (moves == 9) {\r\n      // Draw\r\n      currentPlayer = address(0); // Set current player to empty address (optional)\r\n    } else {\r\n      // Switch players\r\n      currentPlayer = currentPlayer == player1 ? player2 : player1;\r\n    }\r\n  }\r\n\r\n  // Function to check for a winner\r\n  function checkWinner(uint8 row, uint8 col) internal view returns (bool) {\r\n    // Check row\r\n    if (board[row][0] == board[row][1] && board[row][0] == board[row][2]) {\r\n      return true;\r\n    }\r\n    // Check column\r\n    if (board[0][col] == board[1][col] && board[0][col] == board[2][col]) {\r\n      return true;\r\n    }\r\n    // Check diagonals\r\n    if ((board[0][0] == board[1][1] && board[0][0] == board[2][2]) ||\r\n      (board[0][2] == board[1][1] && board[0][2] == board[2][0])) {\r\n      return true;\r\n    }\r\n    return false;\r\n  }\r\n}\r\n",
  "sourcePath": "D:\\Web3\\contracts\\TicTacToe.sol",
  "compiler": {
    "name": "solc",
    "version": "0.8.0+commit.c7dfd78e.Emscripten.clang"
  },
  "schemaVersion": "3.4.16",
  "updatedAt": "2024-05-22T07:19:03.324Z",
  "networkType": "ethereum",
  "devdoc": {
    "kind": "dev",
    "methods": {},
    "version": 1
  },
  "userdoc": {
    "kind": "user",
    "methods": {},
    "version": 1
  }
}